:020000040800F2
:100000000000012059170008491600084F16000883
:10001000551600085B160008611600080000000075
:10002000000000000000000000000000671600084B
:1000300075160008000000008316000891160008DD
:10004000A9170008A9170008A9170008A917000890
:10005000A9170008A9170008A9170008A917000880
:10006000A9170008A9170008A9170008A917000870
:10007000A9170008A9170008A9170008A917000860
:10008000A9170008A9170008A91700080000000018
:10009000000000000000000000000000A917000898
:1000A000A9170008A9170008A9170008A917000830
:1000B000A9170008A9170008A9170008A917000820
:1000C000A9170008A9170008A9170008A917000810
:1000D000A9170008A9170008A917000800000000C8
:1000E0009D160008A9170008A917000800000000C5
:1000F000000000000000000000000000A917000838
:1001000000000000A9170008A9170008A917000897
:1001100000000000000000000000000000000000DF
:10012000A9170008A9170008A9170008A9170008AF
:10013000A9170008000000000000000000000000F7
:10014000000000000000000000000000AD160008E4
:10015000A9170008A9170008A9170008A91700087F
:10016000A9170008A91700080000000000000000FF
:10017000000000000000000000000000000000007F
:1001800000000000A91700080000000000000000A7
:04019000A9170008A3
:1001980010B5054C237833B9044B13B10448AFF3B9
:1001A80000800123237010BD1C0200200000000005
:1001B800509E000808B5034B1BB103490348AFF331
:1001C800008008BD0000000020020020509E0008AA
:1001D80081F0004102E000BF83F0004330B54FEAF0
:1001E80041044FEA430594EA050F08BF90EA020F5D
:1001F8001FBF54EA000C55EA020C7FEA645C7FEAF0
:10020800655C00F0E2804FEA5454D4EB5555B8BF12
:100218006D420CDD2C4480EA020281EA030382EA83
:10022800000083EA010180EA020281EA0303362D15
:1002380088BF30BD11F0004F4FEA01314FF4801CE8
:100248004CEA113102D0404261EB410113F0004FFA
:100258004FEA03334CEA133302D0524263EB4303B1
:1002680094EA050F00F0A780A4F10104D5F1200E4F
:100278000DDB02FA0EFC22FA05F2801841F10001AA
:1002880003FA0EF2801843FA05F359410EE0A5F17E
:1002980020050EF1200E012A03FA0EFC28BF4CF0AF
:1002A800020C43FA05F3C01851EBE37101F0004565
:1002B80007D54FF0000EDCF1000C7EEB00006EEB72
:1002C8000101B1F5801F1BD3B1F5001F0CD34908FC
:1002D8005FEA30004FEA3C0C04F101044FEA445253
:1002E80012F5800F80F09A80BCF1004F08BF5FEADA
:1002F800500C50F1000041EB045141EA050130BDBA
:100308005FEA4C0C404141EB0101013C28BFB1F5CB
:10031800801FE9D291F0000F04BF01460020B1FA16
:1003280081F308BF2033A3F10B03B3F120020CDAE9
:100338000C3208DD02F1140CC2F10C0201FA0CF0C7
:1003480021FA02F10CE002F11402D8BFC2F1200C2C
:1003580001FA02F120FA0CFCDCBF41EA0C019040E2
:10036800E41AA2BF01EB0451294330BD6FEA04042B
:100378001F3C1CDA0C340EDC04F11404C4F1200216
:1003880020FA04F001FA02F340EA030021FA04F328
:1003980045EA030130BDC4F10C04C4F1200220FA7F
:1003A80002F001FA04F340EA0300294630BD21FABD
:1003B80004F0294630BD94F0000F83F4801306BF83
:1003C80081F480110134013D4EE77FEA645C18BF77
:1003D8007FEA655C29D094EA050F08BF90EA020F0E
:1003E80005D054EA000C04BF1946104630BD91EA06
:1003F800030F1EBF0021002030BD5FEA545C05D109
:100408004000494128BF41F0004130BD14F5800447
:100418003CBF01F5801130BD01F0004545F0FE41BB
:1004280041F470014FF0000030BD7FEA645C1ABFF0
:10043800194610467FEA655C1CBF0B46024650EA27
:10044800013406BF52EA033591EA030F41F4002153
:1004580030BD00BF90F0000F04BF0021704730B5D9
:100468004FF4806404F132044FF000054FF00001AE
:1004780050E700BF90F0000F04BF0021704730B56F
:100488004FF4806404F1320410F0004548BF404244
:100498004FF000013EE700BF42004FEAE2014FEA99
:1004A80031014FEA02701FBF12F07F4393F07F4F74
:1004B80081F06051704732F07F4208BF704793F077
:1004C8007F4F04BF41F40021704730B54FF460748A
:1004D80001F0004521F000411CE700BF50EA01028D
:1004E80008BF704730B54FF000050AE050EA010236
:1004F80008BF704730B511F0004502D5404261EBA6
:1005080041014FF4806404F132045FEA915C3FF4E6
:10051800D8AE4FF003025FEADC0C18BF03325FEA83
:10052800DC0C18BF033202EBDC02C2F1200300FA34
:1005380003FC20FA02F001FA03FE40EA0E0021FA59
:1005480002F11444BDE600BF70B54FF0FF0C4CF447
:10055800E06C1CEA11541DBF1CEA135594EA0C0FF9
:1005680095EA0C0F00F0DEF82C4481EA030621EA34
:100578004C5123EA4C5350EA013518BF52EA03356F
:1005880041F4801143F4801338D0A0FB02CE4FF021
:100598000005E1FB02E506F00042E0FB03E54FF051
:1005A8000006E1FB03569CF0000F18BF4EF0010E49
:1005B800A4F1FF04B6F5007F64F5407404D25FEA45
:1005C8004E0E6D4146EB060642EAC62141EA5551F8
:1005D8004FEAC52040EA5E504FEACE2EB4F1FD0C3A
:1005E80088BFBCF5E06F1ED8BEF1004F08BF5FEAB8
:1005F800500E50F1000041EB045170BD06F000466A
:1006080046EA010140EA020081EA0301B4EB5C0416
:10061800C2BFD4EB0C0541EA045170BD41F480110E
:100628004FF0000E013C00F3AB8014F1360FDEBF33
:10063800002001F0004170BDC4F10004203C35DA0F
:100648000C341BDC04F11404C4F1200500FA05F392
:1006580020FA04F001FA05F240EA020001F0004233
:1006680021F0004110EBD37021FA04F642EB0601A9
:100678005EEA430E08BF20EAD37070BDC4F10C04D3
:10068800C4F1200500FA04F320FA05F001FA04F297
:1006980040EA020001F0004110EBD37041F1000183
:1006A8005EEA430E08BF20EAD37070BDC4F120058E
:1006B80000FA05F24EEA020E20FA04F301FA05F2F6
:1006C80043EA020321FA04F001F0004121FA04F29E
:1006D80020EA020000EBD3705EEA430E08BF20EA6E
:1006E800D37070BD94F0000F0FD101F000464000A8
:1006F80041EB010111F4801F08BF013CF7D041EA2A
:10070800060195F0000F18BF704703F0004652002D
:1007180043EB030313F4801F08BF013DF7D043EAFE
:100728000603704794EA0C0F0CEA135518BF95EAB4
:100738000C0F0CD050EA410618BF52EA4306D1D13B
:1007480081EA030101F000414FF0000070BD50EA5A
:10075800410606BF1046194652EA430619D094EAE4
:100768000C0F02D150EA013613D195EA0C0F05D1CE
:1007780052EA03361CBF104619460AD181EA030122
:1007880001F0004141F0FE4141F470014FF00000DA
:1007980070BD41F0FE4141F4780170BD70B54FF075
:1007A800FF0C4CF4E06C1CEA11541DBF1CEA1355F5
:1007B80094EA0C0F95EA0C0F00F0A7F8A4EB0504D7
:1007C80081EA030E52EA03354FEA013100F08880CE
:1007D8004FEA03334FF0805545EA131343EA126397
:1007E8004FEA022245EA111545EA10654FEA00264C
:1007F8000EF000419D4208BF964244F1FD0404F505
:10080800407402D25B084FEA3202B61A65EB030560
:100818005B084FEA32024FF480104FF4002CB6EB1D
:10082800020E75EB030E22BFB61A754640EA0C009D
:100838005B084FEA3202B6EB020E75EB030E22BFDD
:10084800B61A754640EA5C005B084FEA3202B6EB1E
:10085800020E75EB030E22BFB61A754640EA9C00DD
:100868005B084FEA3202B6EB020E75EB030E22BFAD
:10087800B61A754640EADC0055EA060E18D04FEA6B
:10088800051545EA16754FEA06164FEAC30343EA0B
:1008980052734FEAC2025FEA1C1CC0D111F4801FD8
:1008A8000BD141EA00014FF000004FF0004CB6E7D1
:1008B80011F4801F04BF01430020B4F1FD0C88BF70
:1008C800BCF5E06F3FF6AFAEB5EB030C04BFB6EB7B
:1008D800020C5FEA500C50F1000041EB045170BD6E
:1008E8000EF0004E4EEA113114EB5C04C2BFD4EB9B
:1008F8000C0541EA045170BD41F480114FF0000E1F
:10090800013C90E645EA060E8DE60CEA135594EA9A
:100918000C0F08BF95EA0C0F3FF43BAF94EA0C0F9D
:100928000AD150EA01347FF434AF95EA0C0F7FF412
:1009380025AF104619462CE795EA0C0F06D152EA66
:1009480003353FF4FDAE1046194622E750EA41064A
:1009580018BF52EA43067FF4C5AE50EA41047FF45B
:100968000DAF52EA43057FF4EBAE12E74FF0FF3CC0
:1009780006E000BF4FF0010C02E000BF4FF0010C91
:100988004DF804CD4FEA410C7FEA6C5C4FEA430C0A
:1009980018BF7FEA6C5C1BD001B050EA410C0CBF59
:1009A80052EA430C91EA030F02BF90EA020F0020BB
:1009B800704710F1000F91EA030F58BF994208BF22
:1009C80090422CBFD8176FEAE37040F001007047DF
:1009D8004FEA410C7FEA6C5C02D150EA013C07D136
:1009E8004FEA430C7FEA6C5CD6D152EA033CD3D081
:1009F8005DF8040B704700BF8446104662468C467B
:100A08001946634600E000BF01B5FFF7B7FF0028AD
:100A180048BF10F1000F01BD4DF808EDFFF7F4FFD6
:100A28000CBF012000205DF808FB00BF4DF808ED61
:100A3800FFF7EAFF34BF012000205DF808FB00BF84
:100A48004DF808EDFFF7E0FF94BF012000205DF8A6
:100A580008FB00BF4DF808EDFFF7CEFF94BF01205B
:100A680000205DF808FB00BF4DF808EDFFF7C4FF54
:100A780034BF012000205DF808FB00BF4FEA4102A7
:100A880012F5001215D211D56FF47873B3EB6252D8
:100A980012D94FEAC12343F0004343EA505311F0FF
:100AA800004F23FA02F018BF404270474FF0000091
:100AB800704750EA013005D111F0004008BF6FF0CF
:100AC800004070474FF00000704700BF4FEA4102F6
:100AD800B2F1E04324BFB3F5001CDCF1FE5C0DD994
:100AE80001F0004C4FEAC0024CEA5070B2F1004FDE
:100AF80040EB830008BF20F00100704711F0804FE1
:100B080021D113F13872BCBF01F00040704741F4A5
:100B180080114FEA5252C2F11802C2F1200C10FAA9
:100B28000CF320FA02F018BF40F001004FEAC1238D
:100B38004FEAD32303FA0CFC40EA0C0023FA02F331
:100B48004FEA4303CCE77FEA625307D150EA013307
:100B58001EBF4FF0FE4040F44000704701F00040D7
:100B680040F0FE4040F40000704700BF53B94AB956
:100B7800002908BF00281CBF4FF0FF314FF0FF309D
:100B880000F06EB9ADF1080C6DE904CE00F006F87E
:100B9800DDF804E0DDE9022304B070472DE9F047F1
:100BA800089D04468C46002B40F083808A421746F5
:100BB80047D9B2FA82F242B1C2F1200024FA00F019
:100BC8009140974040EA010C94404FEA1748230CA3
:100BD800BCFBF8F61FFA87FE08FB16C143EA01437F
:100BE80006FB0EF1994209D9FB1806F1FF3080F097
:100BF8001981994240F21681023E3B445B1AA4B225
:100C0800B3FBF8F008FB103344EA034400FB0EFE84
:100C1800A64509D93C1900F1FF3380F00581A645A6
:100C280040F2028102383C4440EA0640A4EB0E043C
:100C380000261DB1D4400023C5E900433146BDE874
:100C4800F08702B9FFDEB2FA82F2002A50D1CB1B3C
:100C58004FEA174E1FFA87F80126B3FBFEFC210C5A
:100C68000EFB1C3341EA034108FB0CF38B4207D906
:100C780079180CF1FF3002D28B4200F2E9808446E9
:100C8800C91AA3B2B1FBFEF00EFB101143EA0144EE
:100C980008FB00F8A04507D93C1900F1FF3302D240
:100CA800A04500F2D9801846A4EB080440EA0C409D
:100CB800BFE78B4209D9002D00F0B1800026C5E9B5
:100CC800000130463146BDE8F087B3FA83F6002EBE
:100CD8004AD18B4202D3824200F2B880841A61EB77
:100CE800030101208C46002DA8D0C5E9004CA5E7DA
:100CF800C2F1200320FA03F6974001FA02F04FEA06
:100D0800174ED9403043030CB1FBFEF61FFA87F8A3
:100D18000EFB161143EA014306FB08F1994204FA57
:100D280002F409D9FB1806F1FF3C80F08D80994246
:100D380040F28A80023E3B445B1A81B2B3FBFEF06C
:100D48000EFB103341EA034100FB08F38B4207D93D
:100D5800791800F1FF3C73D28B4271D902383944BB
:100D6800CB1A40EA064678E7C6F1200C03FA06F4E7
:100D780022FA0CF31C4320FA0CF701FA06F34FEAA7
:100D8800144E21FA0CF11F433B0CB1FBFEF91FFA7C
:100D980084F80EFB191143EA014109FB08FA8A4558
:100DA80002FA06F200FA06F308D9611809F1FF30D1
:100DB80048D28A4546D9A9F102092144A1EB0A0182
:100DC800BFB2B1FBFEF00EFB101147EA014700FB72
:100DD80008F8B84507D9E71900F1FF312ED2B84510
:100DE8002CD90238274440EA0940A7EB0807A0FBA2
:100DF80002894F45C64649461AD317D05DB1B3EBB1
:100E08000E0267EB010707FA0CFCF2404CEA0202FB
:100E1800F740C5E9002700263146BDE8F0872E4691
:100E280028460BE70646E9E61846FDE64345E5D2BF
:100E3800B8EB020E69EB04010138DFE70846D2E798
:100E480060468DE78146B9E7664675E730464AE76A
:100E5800ACF1020C394413E702383C4424E700BFE4
:100E6800704700BFF0B599B018AF00F09BFC00F0D8
:100E780011F900F07FFA08F0F5F900F07BF900F0BD
:100E8800AFF900F029FA734E6D4606F110040FCC45
:100E98000FC50FCC0FC594E80F0085E80F0096E842
:100EA8000F0005F07BFE6C4C4FF4806317936B4B7F
:100EB80016934FF480531593694B14934FF40073B2
:100EC8001393664B1293684604F11003482219469F
:100ED80008F04CFE94E80F0005F096FB614B0122E8
:100EE8001A7006F081F900F0C3FC03465E4A1360ED
:100EF80000F0BEFC02465C4B1B68D31AB3F57A7F40
:100F080004D25A4B1B680133584A136006F012F991
:100F1800574B1B79002B3BD0554BDB78013B032B00
:100F280032D801A252F823F0410F0008550F0008EB
:100F3800690F00087D0F00084E4B1B8819464E4864
:100F480006F028F84C4806F037FA81E04B4B1B882E
:100F580019464B4806F01EF8494806F02DFA77E086
:100F6800484B1B881946484806F014F8464806F0CE
:100F780023FA6DE0454B1B881946454806F00AF8E8
:100F8800434806F019FA63E0394B00221A705FE013
:100F9800374B1B78002B02D0012B03D058E006F00A
:100FA800C7FA55E0324B5B78002B02D106F0C2F944
:100FB8004DE02F4B5B78012B03D02D4B5B78022B38
:100FC80038D12B4BDB78013B032B1BD801A252F8FD
:100FD80023F000BFED0F0008F50F0008FD0F000813
:100FE80005100008244806F079FA21E0244806F0A4
:100FF80075FA1DE0244806F071FA19E0244806F055
:101008006DFA15E000F034FC0346174A136000F04F
:101018002FFC0246144B1B68D31A312B04D806F058
:1010280019FA012000F030FC114B00221A7000BFA1
:1010380000BF0CE00E4B5B78C02B02D106F030FAF3
:1010480005E00B4B5B78C12B01D106F0DDF900BF41
:101058004EE700BF54030020FC02002000000240BD
:101068000004024038020020340400209C030020C1
:1010780094030020A00300204C0400201405002045
:10108800E0040020B404002080040020B8030020FD
:10109800C802002080B594B000AF07F120033022C9
:1010A8000021184608F070FD07F10C0300221A60B1
:1010B8005A609A60DA601A610023BB602B4B1B6C84
:1010C8002A4A43F080531364284B1B6C03F0805367
:1010D800BB60BB6800237B60254B1B6823F440433F
:1010E800234A43F400431360214B1B6803F4404335
:1010F8007B607B6801233B624FF480337B62022371
:10110800BB634FF48003FB6304233B64A8237B6425
:101118000423BB640723FB6407F12003184602F08D
:1011280031FA0346002B01D000F0B6F90F23FB601B
:1011380002233B6100237B614FF48053BB61002392
:10114800FB6107F10C030221184602F08BFC0346F1
:10115800002B01D000F0A0F900224FF480010020FC
:1011680002F066FD00BF5037BD4680BD0038024022
:101178000070004080B500AF174B184A1A60164B34
:101188004FF482725A60144B00229A60124B00226C
:10119800DA60114B00221A610F4B01225A610E4B83
:1011A8004FF400729A610C4B0022DA610A4B00225C
:1011B8001A62094B00225A62074B00229A62064BB8
:1011C8000A22DA62044802F089FE0346002B01D0A5
:1011D80000F062F900BF80BDFC020020003800402A
:1011E80080B58AB000AF07F1180300221A605A6070
:1011F8009A60DA6007F1100300221A605A603B46D1
:1012080000221A605A609A60DA60314B314A1A60DB
:101218002F4B42F2CF025A602D4B00229A602C4B82
:1012280042F2EF32DA602A4B00221A61284B002280
:101238009A61274803F038FA0346002B01D000F0E2
:101248002BF94FF48053BB6107F118031946204866
:1012580003F04AFB0346002B01D000F01DF91C489F
:1012680003F071FA0346002B01D000F015F90023B2
:101278003B6100237B6107F110031946144803F012
:101288002FFE0346002B01D000F006F900233B6037
:1012980001237B600023BB600023FB603B460022E8
:1012A80019460B4803F084FA0346002B01D000F0DE
:1012B800F3F83B4604221946054803F079FA034639
:1012C800002B01D000F0E8F800BF2837BD4680BDEC
:1012D800D40300200004004080B586B000AF07F1B9
:1012E800080300221A605A609A60DA603B460022BE
:1012F8001A605A601D4B1E4A1A601C4B53225A60D2
:101308001A4B00229A60194B4FF6FF72DA60174B9E
:1013180000221A61154B00229A61144803F0C4F99F
:101328000346002B01D000F0B7F84FF48053BB60A0
:1013380007F1080319460D4803F0D6FA0346002BB7
:1013480001D000F0A9F800233B6000237B603B46F6
:101358001946064803F0C4FD0346002B01D000F0EF
:101368009BF800BF1837BD4680BD00BF540300205E
:101378000008004080B588B000AF07F10C030022D8
:101388001A605A609A60DA601A610023BB60334BB6
:101398001B6B324A43F080031363304B1B6B03F023
:1013A8008003BB60BB6800237B602C4B1B6B2B4A04
:1013B80043F002031363294B1B6B03F002037B60AA
:1013C8007B6800233B60254B1B6B244A43F00103D9
:1013D8001363224B1B6B03F001033B603B68002245
:1013E8004FF4C0611E4800F02FFF4FF48053FB609C
:1013F8001C4B3B6101237B6107F10C0319461A481A
:1014080000F086FD4FF48073FB6002233B610023EC
:101418007B610023BB610023FB6107F10C031946C4
:101428000F4800F075FD4FF4C063FB6001233B617A
:1014380000237B610023BB6107F10C0319460848B0
:1014480000F066FD00220021282000F01CFB282067
:1014580000F035FB00BF2037BD4680BD0038024094
:1014680000000240000031100004024080B582B044
:1014780000AF0346FB80FB88B3F5805F05D1054BC1
:101488001B78002B01D005F0EBFA00BF0837BD46EA
:1014980080BD00BF3802002080B400AF72B600BF24
:1014A800FEE7000080B483B000AF00237B60104BE0
:1014B8005B6C0F4A43F4804353640D4B5B6C03F43D
:1014C80080437B607B6800233B60094B1B6C084AA8
:1014D80043F080531364064B1B6C03F080533B604E
:1014E8003B6800BF0C37BD465DF8047B704700BF02
:1014F8000038024080B58AB000AF786007F1140365
:1015080000221A605A609A60DA601A617B681B6868
:10151800194A93422CD100233B61184B1B6C174A84
:1015280043F480431364154B1B6C03F480433B6105
:101538003B690023FB60114B1B6B104A43F002030D
:1015480013630E4B1B6B03F00203FB60FB684FF445
:1015580060437B610223BB610023FB6103233B6281
:1015680005237B6207F114031946054800F0D0FCF7
:1015780000BF2837BD4680BD003800400038024013
:101588000004024080B58AB000AF786007F1140308
:1015980000221A605A609A60DA601A617B681B68D8
:1015A800234A93422CD100233B61224B1B6C214AD6
:1015B80043F0020313641F4B1B6C03F002033B61EF
:1015C8003B690023FB601B4B1B6B1A4A43F0020369
:1015D8001363184B1B6B03F00203FB60FB6830239B
:1015E8007B610223BB610023FB6100233B62022372
:1015F8007B6207F1140319460F4800F089FC12E0DA
:101608007B681B680D4A93420DD10023BB60094BD0
:101618001B6C084A43F004031364064B1B6C03F06D
:101628000403BB60BB6800BF2837BD4680BD00BF50
:101638000004004000380240000402400008004056
:1016480080B400AFFEE780B400AFFEE780B400AF1F
:10165800FEE780B400AFFEE780B400AFFEE780B4D9
:1016680000AF00BFBD465DF8047B704780B400AF93
:1016780000BFBD465DF8047B704780B400AF00BF73
:10168800BD465DF8047B704780B500AF00F0DCF81C
:1016980000BF80BD80B500AF4FF4805000F0EEFD74
:1016A80000BF80BD80B500AF024800F04FFF00BF0B
:1016B80080BD00BF140B002080B586B000AF7860F5
:1016C800144A154BD31A7B617B693B61134B1B682A
:1016D800002B02D1114B124A1A60104B1A687B6812
:1016E80013443A699A4207D208F006FA03460C22D4
:1016F8001A604FF0FF3309E0084B1B68FB60074B8B
:101708001A687B681344054A1360FB681846183743
:10171800BD4680BD00000120000400003C020020FE
:10172800300F002080B400AF084BD3F88830074A48
:1017380043F47003C2F88830044B4FF000629A609B
:1017480000BFBD465DF8047B704700BF00ED00E0B8
:10175800DFF834D0002103E00C4B5B5843500431D0
:101768000B480C4B42189A42F6D30B4A02E000236E
:1017780042F8043B094B9A42F9D3FFF7D3FF08F02C
:10178800C1F9FFF76FFB704700000120D49E0008E5
:10179800000000201C0200201C0200202C0F00204A
:1017A800FEE7000080B500AF0E4B1B680D4A43F4FE
:1017B800007313600B4B1B680A4A43F48063136081
:1017C800084B1B68074A43F480731360032000F03A
:1017D8004FF9002000F008F8FFF764FE00231846D0
:1017E80080BD00BF003C024080B582B000AF786089
:1017F800124B1A68124B1B7819464FF47A73B3FBD5
:10180800F1F3B2FBF3F3184600F067F90346002B37
:1018180001D001230EE07B680F2B0AD800227968DB
:101828004FF0FF3000F02FF9064A7B681360002361
:1018380000E0012318460837BD4680BD000000209F
:10184800080000200400002080B400AF064B1B787D
:101858001A46064B1B681344044A136000BFBD4672
:101868005DF8047B704700BF080000202C050020AD
:1018780080B400AF034B1B681846BD465DF8047B77
:10188800704700BF2C05002080B584B000AF786099
:10189800FFF7EEFFB8607B68FB60FB68B3F1FF3FC2
:1018A80005D00A4B1B781A46FB681344FB6000BF3F
:1018B800FFF7DEFF0246BB68D31AFA689A42F7D8E8
:1018C80000BF00BF1037BD4680BD00BF0800002024
:1018D80080B485B000AF78607B6803F00703FB60D5
:1018E8000C4BDB68BB60BA684FF6FF031340BB6064
:1018F800FB681A02BB68134343F0BF6343F4003329
:10190800BB60044ABB68D36000BF1437BD465DF8AE
:10191800047B704700ED00E080B400AF044BDB6847
:101928001B0A03F007031846BD465DF8047B7047A1
:1019380000ED00E080B483B000AF0346FB7197F977
:101948000730002B0BDBFB7903F01F02074997F9DF
:1019580007305B09012000FA02F241F8232000BF9A
:101968000C37BD465DF8047B704700BF00E100E01E
:1019780080B483B000AF03463960FB7197F9073034
:10198800002B0ADB3B68DAB20C4997F907301201E1
:10199800D2B20B4483F800230AE03B68DAB2084964
:1019A800FB7903F00F03043B1201D2B20B441A7601
:1019B80000BF0C37BD465DF8047B704700E100E0CE
:1019C80000ED00E080B489B000AFF860B9607A60DB
:1019D800FB6803F00703FB61FB69C3F10703042BF2
:1019E80028BF0423BB61FB690433062B02D9FB69BA
:1019F800033B00E000237B614FF0FF32BB6902FA32
:101A080003F3DA43BB681A407B699A404FF0FF3111
:101A18007B6901FA03F3D9437B680B4013431846EB
:101A28002437BD465DF8047B7047000080B582B05E
:101A380000AF78607B68013BB3F1807F01D301235D
:101A48000FE00A4A7B68013B53600F214FF0FF30DB
:101A5800FFF78EFF054B00229A60044B07221A609D
:101A6800002318460837BD4680BD00BF10E000E0DF
:101A780080B582B000AF78607868FFF729FF00BFB3
:101A88000837BD4680BD80B586B000AF0346B96053
:101A98007A60FB7300237B61FFF73EFF78617A6809
:101AA800B9687869FFF78EFF024697F90F3011463B
:101AB8001846FFF75DFF00BF1837BD4680BD80B5EB
:101AC80082B000AF0346FB7197F907301846FFF75D
:101AD80031FF00BF0837BD4680BD80B582B000AF7A
:101AE80078607868FFF7A2FF034618460837BD46B6
:101AF80080BD000080B586B000AFF860B960C7E966
:101B080000230123FB75234B1B7E012B01D10223EC
:101B18003BE0204B01221A764CF2503000F070F86E
:101B28000346FB75FB7D002B2BD1FB68002B05D1F1
:101B38003B781946B86800F01BF916E0FB68012BE2
:101B480005D13B881946B86800F0EEF80DE0FB684F
:101B5800022B05D13B681946B86800F0C3F804E0C9
:101B6800D7E90023B86800F08BF84CF2503000F049
:101B780047F80346FB75084B1B69074A23F0010326
:101B88001361044B00221A76FB7D18461837BD46B0
:101B980080BD00BF30050020003C024080B483B007
:101BA80000AF0023FB710B4B1B69002B0BDA094BB1
:101BB800094A5A60074B094A5A60064B1B69002BB1
:101BC80001DA0123FB71FB7918460C37BD465DF835
:101BD800047B7047003C024023016745AB89EFCD89
:101BE80080B400AF054B1B69044A43F000431361FE
:101BF80000231846BD465DF8047B7047003C024050
:101C080080B584B000AF78600023FB601A4B0022D7
:101C1800DA61FFF72DFEF86010E07B68B3F1FF3F53
:101C28000CD07B68002B07D0FFF722FE0246FB682A
:101C3800D31A7A689A4201D2032319E00F4BDB6862
:101C480003F48033002BE8D10C4BDB6803F001036D
:101C5800002B02D0094B0122DA60084BDB6803F441
:101C6800F973002B03D000F0A5F8012300E000234E
:101C780018461037BD4680BD30050020003C0240A4
:101C880080B485B000AFF860C7E90023144B1B6926
:101C9800134A23F440731361114B1B69104A43F430
:101CA800407313610E4B1B690D4A43F00103136126
:101CB800FB683A681A60BFF36F8F00BFD7E900016D
:101CC8004FF000024FF000030A000023F9680431C6
:101CD80013460B6000BF1437BD465DF8047B7047A0
:101CE800003C024080B483B000AF786039600D4B8F
:101CF8001B690C4A23F4407313610A4B1B69094A98
:101D080043F400731361074B1B69064A43F0010350
:101D180013617B683A681A6000BF0C37BD465DF8EE
:101D2800047B7047003C024080B483B000AF786009
:101D38000B467B800D4B1B690C4A23F440731361DF
:101D48000A4B1B69094A43F480731361074B1B69EB
:101D5800064A43F0010313617B687A881A8000BF42
:101D68000C37BD465DF8047B704700BF003C02405D
:101D780080B483B000AF78600B46FB700C4B1B69D6
:101D88000B4A23F440731361094B094A1B69136119
:101D9800074B1B69064A43F0010313617B68FA7815
:101DA8001A7000BF0C37BD465DF8047B704700BF52
:101DB800003C024080B400AF2F4BDB6803F01003F7
:101DC800002B08D02D4BDB6943F010032B4AD3615D
:101DD800294B1022DA60284BDB6803F02003002B24
:101DE80008D0264BDB6943F00803244AD361224B11
:101DF8002022DA60204BDB6803F04003002B08D078
:101E08001E4BDB6943F004031C4AD3611A4B402282
:101E1800DA60194BDB6803F08003002B08D0174BFE
:101E2800DB6943F00203154AD361134B8022DA6061
:101E3800114BDB6803F48073002B09D00F4BDB696F
:101E480043F001030D4AD3610B4B4FF48072DA6003
:101E5800094BDB6803F00203002B08D0074BDB6952
:101E680043F02003054AD361034B0222DA6000BF26
:101E7800BD465DF8047B7047003C024030050020F9
:101E880080B485B000AF78600B46FB700023FB6020
:101E9800FB78002B02D10023FB6010E0FB78012BBC
:101EA80003D14FF48073FB6009E0FB78022B03D168
:101EB8004FF40073FB6002E04FF44073FB60134B78
:101EC8001B69124A23F440731361104B1A690F49B6
:101ED800FB6813430B610D4B1B690C4A23F0F80395
:101EE80013610A4B1A697B68DB001343074A43F006
:101EF80002031361054B1B69044A43F480331361E1
:101F080000BF1437BD465DF8047B7047003C0240B3
:101F180080B489B000AF7860396000237B6100230A
:101F28003B610023BB610023FB6159E10122FB698E
:101F380002FA03F37B613B681B687A6913403B61D3
:101F48003A697B699A4240F048813B685B68012B9B
:101F58000BD03B685B68022B07D03B685B68112B92
:101F680003D03B685B68122B30D17B689B68BB61F0
:101F7800FB695B00032202FA03F3DB43BA691340EF
:101F8800BB613B68DA68FB695B0002FA03F3BA6974
:101F98001343BB617B68BA699A607B685B68BB6105
:101FA8000122FB6902FA03F3DB43BA691340BB6100
:101FB8003B685B681B0903F00102FB6902FA03F343
:101FC800BA691343BB617B68BA695A607B68DB688E
:101FD800BB61FB695B00032202FA03F3DB43BA69C6
:101FE8001340BB613B689A68FB695B0002FA03F324
:101FF800BA691343BB617B68BA69DA603B685B689E
:10200800022B03D03B685B68122B23D1FB69DA08EB
:102018007B68083253F82230BB61FB6903F0070381
:102028009B000F2202FA03F3DB43BA691340BB613A
:102038003B681A69FB6903F007039B0002FA03F384
:10204800BA691343BB61FB69DA087B680832B9696E
:1020580043F822107B681B68BB61FB695B000322A5
:1020680002FA03F3DB43BA691340BB613B685B6860
:1020780003F00302FB695B0002FA03F3BA69134336
:10208800BB617B68BA691A603B685B6803F0805380
:10209800002B00F0A2800023FB60574B5B6C564A74
:1020A80043F480435364544B5B6C03F48043FB60FC
:1020B800FB68524AFB699B08023352F82330BB6124
:1020C800FB6903F003039B000F2202FA03F3DB43CF
:1020D800BA691340BB617B68494A934219D07B684F
:1020E800484A934213D07B68474A93420DD07B6895
:1020F800464A934207D07B68454A934201D104235C
:1021080008E0072306E0032304E0022302E001239A
:1021180000E00023FA6902F0030292009340BA69D2
:102128001343BB613549FB699B080233BA6941F81F
:102138002320384B1B68BB613B69DB43BA691340FA
:10214800BB613B685B6803F48033002B03D0BA693A
:102158003B691343BB612F4ABB6913602D4B5B6816
:10216800BB613B69DB43BA691340BB613B685B6891
:1021780003F40033002B03D0BA693B691343BB61F6
:10218800244ABB695360234B9B68BB613B69DB43B3
:10219800BA691340BB613B685B6803F48013002B8A
:1021A80003D0BA693B691343BB611A4ABB699360A0
:1021B800184BDB68BB613B69DB43BA691340BB6101
:1021C8003B685B6803F40013002B03D0BA693B69D2
:1021D8001343BB610F4ABB69D360FB690133FB61E1
:1021E800FB690F2B7FF6A2AE00BF00BF2437BD46A8
:1021F8005DF8047B704700BF00380240003801409A
:10220800000002400004024000080240000C0240A6
:1022180000100240003C014080B485B000AF7860F7
:102228000B467B807B681A697B881340002B02D0A1
:102238000123FB7301E00023FB73FB7B1846143773
:10224800BD465DF8047B704780B483B000AF78600A
:102258000B467B8013467B707B78002B03D07A88F3
:102268007B689A6103E07B881A047B689A6100BFE7
:102278000C37BD465DF8047B7047000080B582B01E
:1022880000AF0346FB80084B5A69FB881340002BBC
:1022980006D0054AFB885361FB881846FFF7E6F825
:1022A80000BF0837BD4680BD003C0140F0B58FB087
:1022B8000AAF78607B68002B01D101230FE17B68AE
:1022C8001B68BB607B6893F8BD33DBB2002B06D17B
:1022D8007B68002283F8BC23786807F025F97B68BF
:1022E800032283F8BD23BB68DB6B03F48073002BE8
:1022F80002D17B6800221A617B681B68184602F0CD
:1023080072FF7B681B683B607E686D4606F11004AF
:102318000FCC0FC50FCC0FC594E8030085E8030068
:10232800331D0ECB386802F049FE0346002B05D05A
:102338007B68022283F8BD230123D0E07B681B68F9
:102348000021184602F060FF0023FB734AE0FA7B85
:1023580079681346DB009B1A9B000B443D3301222E
:102368001A70FA7B79681346DB009B1A9B000B44B2
:102378003C33FA7B1A70FA7BFB7B98B27968134678
:10238800DB009B1A9B000B44423302461A80FA7BFF
:1023980079681346DB009B1A9B000B443F330022ED
:1023A8001A70FA7B79681346DB009B1A9B000B4472
:1023B800443300221A60FA7B79681346DB009B1AC3
:1023C8009B000B44483300221A60FA7B7968134655
:1023D800DB009B1A9B000B44503300221A60FB7BE6
:1023E8000133FB73FA7B7B685B689A42AFD30023A7
:1023F800FB7344E0FA7B79681346DB009B1A9B0069
:102408000B4403F2FD1300221A70FA7B7968134615
:10241800DB009B1A9B000B4403F5FE73FA7B1A70D2
:10242800FA7B79681346DB009B1A9B000B4403F286
:10243800FF1300221A70FA7B79681346DB009B1A97
:102448009B000B4403F5017300221A60FA7B79683C
:102458001346DB009B1A9B000B4403F50273002212
:102468001A60FA7B79681346DB009B1A9B000B44C1
:1024780003F5047300221A60FB7B0133FB73FA7BBC
:102488007B685B689A42B5D37B681B683B607E6853
:102498006D4606F110040FCC0FC50FCC0FC594E89C
:1024A800030085E80300331D0ECB386802F0D6FE22
:1024B8000346002B05D07B68022283F8BD23012345
:1024C8000DE07B68002283F838207B68012283F8BE
:1024D800BD237B681B68184603F01EFF00231846BF
:1024E8001437BD46F0BD80B584B000AF78607B6816
:1024F8001B68FB607B6893F8BC33012B01D1022376
:1025080020E07B68012283F8BC237B689B6A012B4F
:1025180009D17B689B69012B05D0FB689B6B43F451
:102528008032FB689A637B681B68184602F04AFE93
:102538007B681B68184603F0CEFE7B68002283F890
:10254800BC23002318461037BD4680BD90B58DB01A
:1025580000AF78607B681B683B623B6AFB617B6805
:102568001B68184603F08CFF0346002B40F09D8340
:102578007B681B68184603F0F0FE0346002B00F04A
:1025880093837B681B68184603F0E7FE034603F055
:102598000203022B07D17B681B685A697B681B689A
:1025A80002F002025A617B681B68184603F0D5FEE8
:1025B800034603F01003102B61D17B681B689A69EE
:1025C8007B681B6822F010029A613B6A1B6ABB6138
:1025D800BB6903F00F021346DB009B1A9B0003F54F
:1025E800FC737A68134404337B61BB695B0C03F0AA
:1025F8000F03022B24D1BA6947F6F0731340002B5E
:1026080035D07B69D968BB691B099BB2C3F30A0340
:102618009BB21A46386A03F03BFD7B69DA68BB69EE
:102628001B09C3F30A031A447B69DA607B699A6958
:10263800BB691B09C3F30A031A447B699A6116E054
:10264800BB695B0C03F00F03062B10D17B6803F505
:10265800717308221946386A03F01AFD7B699A6972
:10266800BB691B09C3F30A031A447B699A617B6837
:102678001B689A697B681B6842F010029A617B6844
:102688001B68184603F069FE034603F40023B3F5FC
:10269800002F6ED100237B627B681B68184603F00D
:1026A8006FFEB86262E0BB6A03F00103002B57D0EB
:1026B8007B681B687A6AD2B21146184603F094FE0A
:1026C80038613B6903F00103002B0CD07B6A5A0187
:1026D800FB69134403F530631A4601239360796A52
:1026E800786800F099FD3B6903F00803002B0CD0D3
:1026F8007B6A5A01FB69134403F530631A460823C1
:102708009360796A786800F093FE3B6903F01003E0
:10271800002B08D07B6A5A01FB69134403F5306328
:102728001A46102393603B6903F02003002B08D05E
:102738007B6A5A01FB69134403F530631A46202368
:1027480093603B6903F40053002B09D07B6A5A015C
:10275800FB69134403F530631A464FF40053936042
:102768007B6A01337B62BB6A5B08BB62BB6A002B76
:1027780099D17B681B68184603F0EFFD034603F404
:102788008023B3F5802F40F0C0807B681B68184613
:1027980003F010FEB86200237B62B2E0BB6A03F06C
:1027A8000103002B00F0A7807B681B687A6AD2B20D
:1027B8001146184603F036FE38613B6903F0010301
:1027C800002B57D07B6A03F00F03012202FA03F3B0
:1027D800FB60FB6903F500635A6BFB68DB43F9692F
:1027E80001F5006113404B637B6A5A01FB6913448E
:1027F80003F510631A46012393607B681B69012B5C
:1028080032D179687A6A1346DB009B1A9B000B4425
:102818004833196878687A6A1346DB009B1A9B006C
:10282800034444331B68194478687A6A1346DB000A
:102838009B1A9B000344483319607B6A002B13D111
:1028480079687A6A1346DB009B1A9B000B44503365
:102858001B68002B08D17B6818687B6803F57173C7
:102868001A46012103F03EFE7B6ADBB219467868FE
:1028780006F0DBFE3B6903F00803002B08D07B6AF7
:102888005A01FB69134403F510631A460823936041
:102898003B6903F01003002B08D07B6A5A01FB69DF
:1028A800134403F510631A46102393603B6903F041
:1028B8004003002B08D07B6A5A01FB69134403F5D7
:1028C80010631A46402393603B6903F00203002B10
:1028D80008D07B6A5A01FB69134403F510631A4652
:1028E800022393603B6903F08003002B03D0796ACD
:1028F800786800F003FC7B6A01337B62BB6A5B0883
:10290800BB62BB6A002B7FF449AF7B681B68184623
:1029180003F023FD034603F00043B3F1004F22D137
:10292800FB6903F500635B68FA6902F5006223F04E
:10293800010353607B6893F8F433012B08D17B685B
:10294800002283F8F4230021786800F00FFE02E0EB
:10295800786806F0D7FE7B681B685A697B681B6835
:1029680002F000425A617B681B68184603F0F5FCC8
:10297800034603F40063B3F5006F12D1FB6903F556
:1029880000639B6803F00103012B02D1786806F00D
:1029980093FE7B681B685A697B681B6802F40062B7
:1029A8005A617B681B68184603F0D7FC034603F49A
:1029B8008053B3F5805F40F0C780FB6903F500637F
:1029C8005B68FA6902F5006223F0010353607B68D3
:1029D8001B681021184602F0A5FD0023FB6256E093
:1029E800FB6A5A01FB69134403F510631A464FF654
:1029F8007F339360FB6A5A01FB69134403F5106344
:102A08001B68FA6A5101FA690A4402F5106223F454
:102A180000131360FB6A5A01FB69134403F5106342
:102A28001B68FA6A5101FA690A4402F5106243F018
:102A380000631360FB6A5A01FB69134403F53063B2
:102A48001A464FF67F339360FB6A5A01FB691344B9
:102A580003F530631B68FA6A5101FA690A4402F502
:102A6800306223F400131360FB6A5A01FB691344B4
:102A780003F530631B68FA6A5101FA690A4402F5E2
:102A8800306243F000631360FB6A0133FB627B68CA
:102A98005B68FA6A9A42A3D3FB6903F50063DB69B2
:102AA800FA6902F5006243F00113D3617B681B6B7E
:102AB800002B16D0FB6903F50063D3F88430FA695C
:102AC80002F5006243F00B03C2F88430FB6903F59A
:102AD80000635B6CFA6902F5006243F00B03536410
:102AE80015E0FB6903F500635B69FA6902F50062AA
:102AF80043F4005343F02B035361FB6903F5006370
:102B08001B69FA6902F5006243F00B031361FB6964
:102B180003F500631B68FA6902F5006223F4FE639B
:102B280013607B6818687B681B69D9B27B6803F5FA
:102B380071731A4603F0D6FC7B681B685A697B6878
:102B48001B6802F480525A617B681B68184603F0C0
:102B580004FC034603F40053B3F5005F24D17B68FB
:102B68001B68184603F09AFC7B681B68184602F03D
:102B78003AFD03461A467B68DA607B681C6801F0F8
:102B8800A1F901467B68DB68DBB21A46204602F0F1
:102B980077FA786806F071FD7B681B685A697B686C
:102BA8001B6802F400525A617B681B68184603F0E0
:102BB800D4FB034603F00803082B0AD1786806F013
:102BC8004EFD7B681B685A697B681B6802F0080227
:102BD8005A617B681B68184603F0BFFB034603F481
:102BE8008013B3F5801F0FD100237B627B6ADBB2B1
:102BF8001946786806F0A6FD7B681B685A697B68E9
:102C08001B6802F480125A617B681B68184603F03F
:102C1800A4FB034603F40013B3F5001F0FD10023F0
:102C28007B627B6ADBB21946786806F079FD7B68BF
:102C38001B685A697B681B6802F400125A617B683A
:102C48001B68184603F089FB034603F08043B3F181
:102C5800804F0AD1786806F087FD7B681B685A693F
:102C68007B681B6802F080425A617B681B681846C3
:102C780003F073FB034603F00403042B15D17B68B0
:102C88001B685B68BB61BB6903F00403002B02D0BF
:102C9800786806F077FD7B681B6859687B681B6855
:102CA800BA690A435A6000E000BF3437BD4690BD98
:102CB80080B582B000AF78600B46FB707B6893F8F4
:102CC800BC33012B01D1022313E07B68012283F876
:102CD800BC237B68FA7883F838207B681B68FA780D
:102CE8001146184603F0D1FA7B68002283F8BC230A
:102CF800002318460837BD4680BD80B584B000AFB4
:102D08007860084611461A460346FB700B463B801E
:102D18001346BB700023FB7297F90330002B0FDAC0
:102D2800FB7803F00F021346DB009B1A9B00383335
:102D38007A6813440433FB60FB6801225A700FE081
:102D4800FB7803F00F021346DB009B1A9B0003F588
:102D5800FC737A6813440433FB60FB6800225A70E2
:102D6800FB7803F00F03DAB2FB681A703A88FB6845
:102D78009A60FB68BA78DA70FB685B78002B04D03D
:102D8800FB681B789AB2FB68DA80BB78022B02D109
:102D9800FB6800221A717B6893F8BC33012B01D1C0
:102DA80002230EE07B68012283F8BC237B681B6842
:102DB800F968184602F03CFC7B68002283F8BC23C3
:102DC800FB7A18461037BD4680BD80B584B000AF89
:102DD80078600B46FB7097F90330002B0FDAFB780D
:102DE80003F00F021346DB009B1A9B0038337A6806
:102DF80013440433FB60FB6801225A700FE0FB7830
:102E080003F00F021346DB009B1A9B0003F5FC73CB
:102E18007A6813440433FB60FB6800225A70FB781D
:102E280003F00F03DAB2FB681A707B6893F8BC33BF
:102E3800012B01D102230EE07B68012283F8BC2319
:102E48007B681B68F968184602F07AFC7B680022E8
:102E580083F8BC23002318461037BD4680BD80B5D3
:102E680086B000AFF8607A603B600B46FB72FB7A75
:102E780003F00F021346DB009B1A9B0003F5FC735B
:102E8800FA68134404337B617B697A68DA607B698A
:102E98003A685A617B6900229A617B6900225A70FC
:102EA800FB7A03F00F03DAB27B691A70FB681B69BF
:102EB800012B02D17A687B691A61FB7A03F00F0350
:102EC800002B09D1FB681868FB681B69DBB21A463E
:102ED800796902F055FF08E0FB681868FB681B6910
:102EE800DBB21A46796902F007FD00231846183745
:102EF800BD4680BD80B586B000AFF8607A603B60A3
:102F08000B46FB72FB7A03F00F021346DB009B1A99
:102F18009B003833FA68134404337B617B697A6811
:102F2800DA607B693A685A617B6900229A617B6939
:102F380001225A70FB7A03F00F03DAB27B691A7028
:102F4800FB681B69012B02D17A687B691A61FB7ADD
:102F580003F00F03002B09D1FB681868FB681B6995
:102F6800DBB21A46796902F00BFF08E0FB681868C3
:102F7800FB681B69DBB21A46796902F0BDFC0023C5
:102F880018461837BD4680BD80B584B000AF78605C
:102F98000B46FB70FB7803F00F027B685B689A4274
:102FA80001D9012350E097F90330002B0FDAFB78A1
:102FB80003F00F021346DB009B1A9B0038337A6834
:102FC80013440433FB60FB6801225A700DE0FA7861
:102FD8001346DB009B1A9B0003F5FC737A681344C5
:102FE8000433FB60FB6800225A70FB6801229A7068
:102FF800FB7803F00F03DAB2FB681A707B6893F86A
:10300800BC33012B01D102231EE07B68012283F827
:10301800BC237B681B68F968184603F062F8FB78E4
:1030280003F00F03002B0AD17B6818687B681B69C3
:10303800D9B27B6803F571731A4603F053FA7B68BB
:10304800002283F8BC23002318461037BD4680BDF4
:1030580080B584B000AF78600B46FB70FB7803F056
:103068000F027B685B689A4201D9012342E097F915
:103078000330002B0FDAFB7803F00F021346DB0056
:103088009B1A9B0038337A6813440433FB60FB684F
:1030980001225A700FE0FB7803F00F021346DB00A1
:1030A8009B1A9B0003F5FC737A6813440433FB6096
:1030B800FB6800225A70FB6800229A70FB7803F0C4
:1030C8000F03DAB2FB681A707B6893F8BC33012BE4
:1030D80001D102230EE07B68012283F8BC237B68C0
:1030E8001B68F968184603F06AF87B68002283F8C1
:1030F800BC23002318461037BD4680BD80B58AB072
:1031080002AF786039607B681B687B617B693B61D3
:103118003A681346DB009B1A9B0038337A681344DD
:103128000433FB60FB689A69FB685B699A4201D9C2
:1031380001236CE0FB685A69FB689B69D31AFB6141
:10314800FB689B68FA699A4202D9FB689B68FB6135
:10315800FB6903339B08BB612BE0FB685A69FB687A
:103168009B69D31AFB61FB689B68FA699A4202D98A
:10317800FB689B68FB61FB6903339B08BB61FB68C9
:10318800D9683B68DAB2FB6998B27B681B69DBB225
:1031980000930346786902F046FFFB68DA68FB692A
:1031A8001A44FB68DA60FB689A69FB691A44FB6891
:1031B8009A613B685A013B69134403F510639B69A4
:1031C8009BB2BA699A4209D8FB689A69FB685B693D
:1031D8009A4203D2FB685B69002BBED1FB685A692F
:1031E800FB689B699A4211D83B6803F00F030122E0
:1031F80002FA03F3BB603B6903F500635A6BBB68D3
:10320800DB43396901F5006113404B63002318461D
:103218002037BD4680BD000080B586B000AF78601D
:1032280039607B681B687B617B693B617B693C33E8
:1032380004331B68FB603B685A013B69134403F580
:1032480030639B68BB607B681B69012B40F0A080E2
:10325800BB6803F00803002B15D0FB68724A934241
:1032680040F2DD80BB6803F40043002B00F0D780F8
:103278003B685A013B69134403F530631A464FF41F
:1032880000439360CBE0BB6803F02003002B09D018
:103298003B685A013B69134403F530631A462023FF
:1032A8009360BCE0BB6803F02803002B40F0B780B4
:1032B800FB685D4A93420FD9BB6803F40043002BB7
:1032C8000AD03B685A013B69134403F530631A4638
:1032D8004FF400439360A2E079683A681346DB0034
:1032E8009B1A9B000B4403F501731A683B6859014C
:1032F8003B690B4403F530631B69C3F31203D11A0E
:1033080078683A681346DB009B1A9B00034403F570
:103318000573196079683A681346DB009B1A9B00AD
:103328000B4403F50273196878683A681346DB00A2
:103338009B1A9B00034403F501731B6819447868C2
:103348003A681346DB009B1A9B00034403F502739B
:1033580019603B68002B14D179683A681346DB0082
:103368009B1A9B000B4403F504731B68002B08D1C0
:103378007B6818687B6803F571731A46012103F0AE
:10338800B1F83B68DBB21946786806F033F946E0D5
:10339800FB68264A934224D1BB6803F40043002B00
:1033A8000AD03B685A013B69134403F530631A4657
:1033B8004FF40043936032E0BB6803F02003002B16
:1033C80008D03B685A013B69134403F530631A4639
:1033D800202393603B68DBB21946786806F00AF947
:1033E8001DE03B68002B14D179683A681346DB006E
:1033F8009B1A9B000B4403F504731B68002B08D130
:103408007B6818687B6803F571731A46002103F01E
:1034180069F83B68DBB21946786806F0EBF80023D8
:1034280018461837BD4680BD0A30544F0A31544FEC
:1034380080B586B000AF786039607B681B687B61B7
:103448007B693B617B693C3304331B68FB603B68E9
:103458005A013B69134403F530639B68BB60FB6802
:10346800154A93420ED9BB6803F40043002B09D0D8
:103478003B685A013B69134403F530631A464FF41D
:1034880000439360786806F0A3F8FB680A4A934201
:103498000CD97B681B69012B08D17B6818687B688D
:1034A80003F571731A46012103F01CF8002318462E
:1034B8001837BD4680BD00BF0A30544F80B485B070
:1034C80000AF78600B46FB7013463B807B681B6837
:1034D8005B6ABB60FB78002B07D13B8819047B68CB
:1034E8001B68BA680A439A6228E07B681B689B6A73
:1034F8001B0CBA681344BB600023FB730DE07B68A8
:103508001A68FB7B40339B0013445B681B0CBA684A
:103518001344BB60FB7B0133FB73FA7BFB78013BF5
:103528009A42ECD33B8818047B681968FB78013B06
:10353800BA68024340339B000B445A600023184684
:103548001437BD465DF8047B704780B483B000AF84
:1035580078600B467B807B681B687A885A620023F8
:1035680018460C37BD465DF8047B704780B483B0BD
:1035780000AF78600B46FB7000BF0C37BD465DF8A6
:10358800047B704780B586B000AF78607B68002BFD
:1035980001D101235BE27B681B6803F00103002B68
:1035A80075D0A34B9B6803F00C03042B0CD0A04BE5
:1035B8009B6803F00C03082B12D19D4B5B6803F446
:1035C8008003B3F5800F0BD1994B1B6803F40033CC
:1035D800002B5BD07B685B68002B57D1012336E258
:1035E8007B685B68B3F5803F06D1914B1B68904AB6
:1035F80043F4803313601DE07B685B68B3F5A02F4C
:103608000CD18B4B1B688A4A43F480231360884B88
:103618001B68874A43F4803313600BE0844B1B68B4
:10362800834A23F480331360814B1B68804A23F458
:10363800802313607B685B68002B13D0FEF718F9B2
:10364800386108E0FEF714F902463B69D31A642B87
:1036580001D90323FBE1764B1B6803F40033002BED
:10366800F0D014E0FEF704F9386108E0FEF700F93D
:1036780002463B69D31A642B01D90323E7E16C4B5B
:103688001B6803F40033002BF0D100E000BF7B6817
:103698001B6803F00203002B63D0654B9B6803F0A3
:1036A8000C03002B0BD0624B9B6803F00C03082B18
:1036B8001CD15F4B5B6803F48003002B16D15C4B75
:1036C8001B6803F00203002B05D07B68DB68012B25
:1036D80001D00123BBE1564B1B6823F0F8027B683D
:1036E8001B69DB00524913430B603AE07B68DB68D7
:1036F800002B20D04F4B01221A60FEF7B9F8386131
:1037080008E0FEF7B5F802463B69D31A022B01D947
:1037180003239CE1464B1B6803F00203002BF0D007
:10372800434B1B6823F0F8027B681B69DB004049A8
:1037380013430B6015E03F4B00221A60FEF798F820
:10374800386108E0FEF794F802463B69D31A022B69
:1037580001D903237BE1364B1B6803F00203002BDE
:10376800F0D17B681B6803F00803002B30D07B681E
:103778005B69002B16D0304B01221A60FEF778F8EF
:10378800386108E0FEF774F802463B69D31A022B49
:1037980001D903235BE1264B5B6F03F00203002B87
:1037A800F0D015E0244B00221A60FEF761F838616A
:1037B80008E0FEF75DF802463B69D31A022B01D9EF
:1037C800032344E11A4B5B6F03F00203002BF0D193
:1037D8007B681B6803F00403002B00F0A080002323
:1037E800FB75134B1B6C03F08053002B0FD1002388
:1037F800BB600F4B1B6C0E4A43F0805313640C4B99
:103808001B6C03F08053BB60BB680123FB750B4B3B
:103818001B6803F48073002B21D1084B1B68074AEF
:1038280043F480731360FEF723F8386111E000BF9A
:103838000038024000004742800E474200700040B6
:10384800FEF716F802463B69D31A022B01D9032367
:10385800FDE0814B1B6803F48073002BF0D07B687C
:103868009B68012B06D17D4B1B6F7C4A43F00103FB
:1038780013671CE07B689B68052B0CD1774B1B6F8B
:10388800764A43F004031367744B1B6F734A43F083
:10389800010313670BE0714B1B6F704A23F00103A0
:1038A80013676E4B1B6F6D4A23F0040313677B6825
:1038B8009B68002B15D0FDF7DBFF38610AE0FDF7A8
:1038C800D7FF02463B69D31A41F28832934201D9A5
:1038D8000323BCE0614B1B6F03F00203002BEED007
:1038E80014E0FDF7C5FF38610AE0FDF7C1FF0246A5
:1038F8003B69D31A41F28832934201D90323A6E0E7
:10390800564B1B6F03F00203002BEED1FB7D012BFE
:1039180005D1524B1B6C514A23F0805313647B68CA
:103928009B69002B00F092804C4B9B6803F00C03C2
:10393800082B5CD07B689B69022B41D1484B002245
:103948001A60FDF795FF386108E0FDF791FF024620
:103958003B69D31A022B01D9032378E03F4B1B683C
:1039680003F00073002BF0D17B68DA697B681B6A6F
:103978001A437B685B6A9B011A437B689B6A5B08F6
:10398800013B1B041A437B68DB6A1B06334913435C
:103998004B60334B01221A60FDF76AFF386108E07B
:1039A800FDF766FF02463B69D31A022B01D90323B0
:1039B8004DE02A4B1B6803F00073002BF0D045E064
:1039C800274B00221A60FDF753FF386108E0FDF726
:1039D8004FFF02463B69D31A022B01D9032336E075
:1039E8001E4B1B6803F00073002BF0D12EE07B68A0
:1039F8009B69012B01D1012329E0184B5B68FB600F
:103A0800FB6803F480027B68DB699A421CD1FB687F
:103A180003F03F027B681B6A9A4215D1FA6847F6A1
:103A2800C07313407A68526A93420DD1FB6803F45D
:103A380040327B689B6A9A4206D1FB6803F0706249
:103A48007B68DB6A9A4201D0012300E00023184614
:103A58001837BD4680BD00BF0070004000380240E6
:103A68006000474280B584B000AF786039607B68F9
:103A7800002B01D10123CCE0684B1B6803F00F0336
:103A88003A689A420CD9654B3A68D2B21A70634BBD
:103A98001B6803F00F033A689A4201D00123B8E08B
:103AA8007B681B6803F00203002B20D07B681B682F
:103AB80003F00403002B05D0594B9B68584A43F484
:103AC800E05393607B681B6803F00803002B05D064
:103AD800534B9B68524A43F460439360504B9B6836
:103AE80023F0F0027B689B684D4913438B607B6829
:103AF8001B6803F00103002B44D07B685B68012B33
:103B080007D1474B1B6803F40033002B19D101235D
:103B18007FE07B685B68022B03D07B685B68032BC4
:103B280007D13F4B1B6803F00073002B09D1012319
:103B38006FE03B4B1B6803F00203002B01D101230C
:103B480067E0374B9B6823F003027B685B68344966
:103B580013438B60FDF78CFEF8600AE0FDF788FEE2
:103B68000246FB68D31A41F28832934201D90323F3
:103B78004FE02B4B9B6803F00C027B685B689B0053
:103B88009A42EBD1254B1B6803F00F033A689A421F
:103B98000CD2224B3A68D2B21A70204B1B6803F041
:103BA8000F033A689A4201D0012332E07B681B6810
:103BB80003F00403002B08D0194B9B6823F4E05250
:103BC8007B68DB68164913438B607B681B6803F0CE
:103BD8000803002B09D0124B9B6823F460427B68D2
:103BE8001B69DB000E4913438B6000F089F802461D
:103BF8000B4B9B681B0903F00F030A49CB5C22FAA5
:103C080003F3094A1360094B1B681846FDF7ECFDDE
:103C1800002318461037BD4680BD00BF003C024057
:103C280000380240B49E0008000000200400002074
:103C380080B58CB000AFF860B9607A60FB68002B83
:103C480029D10023BB612B4B1B6B2A4A43F001038C
:103C58001363284B1B6B03F00103BB61BB694FF473
:103C68008073FB6102233B620323BB6200237B62F8
:103C78000023FB6207F11C0319461F48FEF748F9A9
:103C88001C4B9B6823F0EC62B9687B680B431949AD
:103C980013438B6029E000237B61164B1B6B154A8D
:103CA80043F004031363134B1B6B03F004037B61A2
:103CB8007B694FF40073FB6102233B620323BB6201
:103CC80000237B620023FB6207F11C0319460B48A3
:103CD800FEF71EF9074B9B6823F078427B68D900F2
:103CE800BB680B43034913438B6000BF3037BD46A5
:103CF80080BD00BF003802400000024000080240BA
:103D08002DE9B04384B000AF00237B600023FB6043
:103D180000233B600023BB60674B9B6803F00C03E8
:103D2800082B0DD0082B00F2BD80002B02D0042BED
:103D380003D0B7E0614BBB60B7E0614BBB60B4E058
:103D48005D4B5B6803F03F037B605B4B5B6803F490
:103D58008003002B4DD0584B5B689B091A464FF0E7
:103D6800000340F2FF104FF0000102EA000803EAE6
:103D78000109404649464FF000024FF000034B014D
:103D880043EAD063420110461946B0EB080061EBE4
:103D980009014FF000024FF000038B0143EA9063E2
:103DA8008201121A63EB01034FF000004FF000018B
:103DB800D90041EA5271D00002460B4612EB0802C4
:103DC80043EB09034FF000004FF00001590241EAAC
:103DD800D251500202460B46104619467B681A46D5
:103DE8004FF00003FCF7C2FE02460B461346FB6089
:103DF8004AE0314B5B689B091A464FF0000340F2DA
:103E0800FF104FF0000102EA000403EA0105204612
:103E180029464FF000024FF000034B0143EAD063FC
:103E2800420110461946001B61EB05014FF00002E4
:103E38004FF000038B0143EA90638201121A63EB8F
:103E480001034FF000004FF00001D90041EA527120
:103E5800D00002460B46121945EB03034FF0000051
:103E68004FF00001990241EA9251900202460B4636
:103E7800104619467B681A464FF00003FCF776FE99
:103E880002460B461346FB600B4B5B681B0C03F0AA
:103E9800030301335B003B60FA683B68B2FBF3F352
:103EA800BB6002E0054BBB6000BFBB68184610371B
:103EB800BD46BDE8B08300BF003802400024F400CE
:103EC80000127A0080B400AF034B1B681846BD4649
:103ED8005DF8047B704700BF0000002080B582B009
:103EE80000AF78607B68002B01D1012356E07B6826
:103EF80000229A627B6893F85130DBB2002B06D11E
:103F08007B68002283F850207868FDF7F3FA7B6815
:103F1800022283F851207B681B681A687B681B683B
:103F280022F040021A607B685A687B689B681A43D3
:103F38007B68DB681A437B681B691A437B685B698B
:103F48001A437B689B6903F400731A437B68DB6937
:103F58001A437B681B6A42EA03017B689A6A7B689A
:103F68001B680A431A607B689B691B0C03F00401F9
:103F78007B685A6A7B681B680A435A607B681B68BF
:103F8800DA697B681B6822F40062DA617B680022C8
:103F98005A657B68012283F85120002318460837A8
:103FA800BD4680BD80B588B000AFF860B9603B60A1
:103FB8001346FB800023FB77FB6893F85030012BF6
:103FC80001D102231EE1FB68012283F85020FDF78E
:103FD8004FFCB861FB88FB82FB6893F85130DBB279
:103FE800012B02D00223FB7703E1BB68002B02D030
:103FF800FB88002B02D10123FB77FAE0FB68032240
:1040080083F85120FB6800225A65FB68BA681A6376
:10401800FB68FA889A86FB68FA88DA86FB680022C9
:104028009A63FB6800229A87FB680022DA87FB689C
:1040380000225A64FB6800221A64FB689B68B3F587
:10404800004F07D1FB681B681A68FB681B6842F4BD
:1040580080421A60FB681B681B6803F04003402B12
:1040680007D0FB681B681A68FB681B6842F04002AF
:104078001A60FB68DB68B3F5006F4BD1FB685B68BF
:10408800002B02D0FB8A012B3ED1FB681B6B1A88E0
:10409800FB681B68DA60FB681B6B9A1CFB681A6379
:1040A800FB68DB8E9BB2013B9AB2FB68DA862BE099
:1040B800FB681B689B6803F00203022B12D1FB68A4
:1040C8001B6B1A88FB681B68DA60FB681B6B9A1C01
:1040D800FB681A63FB68DB8E9BB2013B9AB2FB68F4
:1040E800DA8611E0FDF7C4FB0246BB69D31A3A68C9
:1040F8009A4203D83B68B3F1FF3F02D13B68002BDB
:1041080002D10323FB7774E0FB68DB8E9BB2002BA4
:10411800CED14CE0FB685B68002B02D0FB8A012BF8
:1041280040D1FB681A6BFB681B680C3312781A7055
:10413800FB681B6B5A1CFB681A63FB68DB8E9BB21F
:10414800013B9AB2FB68DA862CE0FB681B689B6827
:1041580003F00203022B13D1FB681A6BFB681B6880
:104168000C3312781A70FB681B6B5A1CFB681A63B5
:10417800FB68DB8E9BB2013B9AB2FB68DA8611E0E2
:10418800FDF776FB0246BB69D31A3A689A4203D810
:104198003B68B3F1FF3F02D13B68002B02D10323F8
:1041A800FB7726E0FB68DB8E9BB2002BCDD1BA698A
:1041B8003968F86800F036FA0346002B02D0FB682D
:1041C80020225A65FB689B68002B0AD100233B61BB
:1041D800FB681B68DB683B61FB681B689B683B618D
:1041E8003B69FB685B6D002B02D00123FB7700E085
:1041F80000BFFB68012283F85120FB68002283F886
:104208005020FB7F18462037BD4680BD80B58CB056
:1042180000AFF860B9607A607B800123FB620023FD
:1042280087F82B30FB6893F85030012B01D102231B
:104238008AE1FB68012283F85020FDF719FB7862B8
:10424800FB6893F8513087F82330FB685B68FB61A3
:104258007B887B8397F82330012B0FD0FB69B3F55C
:10426800827F07D1FB689B68002B03D197F8233026
:10427800042B03D0022387F82B305BE1BB68002BAB
:1042880005D07B68002B02D07B88002B03D101234B
:1042980087F82B304EE1FB6893F85130DBB2042BE2
:1042A80003D0FB68052283F85120FB6800225A6579
:1042B800FB687A689A63FB687A88DA87FB687A8889
:1042C8009A87FB68BA681A63FB687A88DA86FB689B
:1042D8007A889A86FB6800221A64FB6800225A646E
:1042E800FB681B681B6803F04003402B07D0FB6882
:1042F8001B681A68FB681B6842F040021A60FB687A
:10430800DB68B3F5006F78D1FB685B68002B02D0DF
:104318007B8B012B66D1FB681B6B1A88FB681B68BB
:10432800DA60FB681B6B9A1CFB681A63FB68DB8E00
:104338009BB2013B9AB2FB68DA8653E0FB681B68C4
:104348009B6803F00203022B1BD1FB68DB8E9BB238
:10435800002B16D0FB6A012B13D1FB681B6B1A8844
:10436800FB681B68DA60FB681B6B9A1CFB681A63A6
:10437800FB68DB8E9BB2013B9AB2FB68DA860023AE
:10438800FB62FB681B689B6803F00103012B19D1D2
:10439800FB68DB8F9BB2002B14D0FB681B68DA68C4
:1043A800FB689B6B92B21A80FB689B6B9A1CFB683C
:1043B8009A63FB68DB8F9BB2013B9AB2FB68DA8792
:1043C8000123FB62FDF754FA02467B6AD31ABA6BE3
:1043D8009A4207D8BB6BB3F1FF3F03D0032387F89A
:1043E8002B30A7E0FB68DB8E9BB2002BA6D1FB68C5
:1043F800DB8F9BB2002BA1D17CE0FB685B68002BB4
:1044080002D07B8B012B6BD1FB681A6BFB681B6896
:104418000C3312781A70FB681B6B5A1CFB681A6302
:10442800FB68DB8E9BB2013B9AB2FB68DA8657E0E9
:10443800FB681B689B6803F00203022B1CD1FB6816
:10444800DB8E9BB2002B17D0FB6A012B14D1FB68C3
:104458001A6BFB681B680C3312781A70FB681B6BAD
:104468005A1CFB681A63FB68DB8E9BB2013B9AB24D
:10447800FB68DA860023FB62FB681B689B6803F015
:104488000103012B19D1FB68DB8F9BB2002B14D0E1
:10449800FB681B68DA68FB689B6BD2B21A70FB6812
:1044A8009B6B5A1CFB689A63FB68DB8F9BB2013BD2
:1044B8009AB2FB68DA870123FB62FDF7D9F9024655
:1044C8007B6AD31ABA6B9A4203D8BB6BB3F1FF3F2E
:1044D80002D1BB6B002B03D1032387F82B3029E0D3
:1044E800FB68DB8E9BB2002BA2D1FB68DB8F9BB2F3
:1044F800002B9DD17A6AB96BF86800F093F80346EF
:10450800002B06D0012387F82B30FB6820225A6540
:1045180010E0FB689B68002B0BD100237B61FB68D4
:104528001B68DB687B61FB681B689B687B617B6938
:1045380000E000BFFB68012283F85120FB680022DD
:1045480083F8502097F82B3018463037BD4680BD89
:1045580080B584B000AFF860B9603B601346FB716A
:104568004CE03B68B3F1FF3F48D0FDF781F90246C4
:10457800BB69D31A3A689A4202D93B68002B3DD1ED
:10458800FB681B685A68FB681B6822F0E0025A60E7
:10459800FB685B68B3F5827F11D1FB689B68B3F554
:1045A800004F04D0FB689B68B3F5806F07D1FB68A8
:1045B8001B681A68FB681B6822F040021A60FB68D7
:1045C8009B6AB3F5005F0FD1FB681B681A68FB682C
:1045D8001B6822F400521A60FB681B681A68FB68A3
:1045E8001B6842F400521A60FB68012283F85120CC
:1045F800FB68002283F8502003230FE0FB681B6848
:104608009A68BB681340BA689A420CBF012300231A
:10461800DBB21A46FB799A42A3D100231846103719
:10462800BD4680BD80B588B002AFF860B9607A60D9
:104638001B4B1B681B4AA2FB03235B0D4FF47A72CA
:1046480002FB03F37B61FB685B68B3F5827F12D1E1
:104658007B680093BB6800228021F868FFF778FF29
:104668000346002B16D0FB685B6D43F02002FB6805
:104678005A6503230FE07B69002B0AD07B69013B55
:104688007B61FB681B689B6803F08003802BF2D07A
:1046980000E000BF002318461837BD4680BD00BFA4
:1046A80000000020819F5E1680B582B000AF786060
:1046B8007B68002B01D101231DE07B6893F83D3016
:1046C800DBB2002B06D17B68002283F83C20786897
:1046D800FCF758FF7B68022283F83D207B681A6844
:1046E8007B6804331946104600F0C2F97B68012242
:1046F80083F83D20002318460837BD4680BD80B4A6
:1047080085B000AF78607B68022283F83D207B6823
:104718001B689B6803F00703FB60FB68062B07D048
:104728007B681B681A687B681B6842F001021A6084
:104738007B68012283F83D20002318461437BD46C4
:104748005DF8047B704780B582B000AF78607B6805
:10475800002B01D101231DE07B6893F83D30DBB2CB
:10476800002B06D17B68002283F83C20786800F093
:1047780015F87B68022283F83D207B681A687B68FD
:1047880004331946104600F073F97B68012283F858
:104798003D20002318460837BD4680BD80B483B04D
:1047A80000AF786000BF0C37BD465DF8047B7047EA
:1047B80080B584B000AFF860B9607A60FB6893F8A0
:1047C8003C30012B01D102238AE0FB68012283F8E7
:1047D8003C20FB68022283F83D207B68002B1BD11C
:1047E800FB681868BB681968BB685A68BB68DB68EF
:1047F80000F0BEF9FB681B689A69FB681B6822F029
:104808000C029A61FB681B689969BB689A68FB6827
:104818001B680A439A615AE07B68042B1CD1FB6829
:104828001868BB681968BB685A68BB68DB6800F021
:1048380036FAFB681B689A69FB681B6822F44062B9
:104848009A61FB681B689969BB689B681A02FB68D8
:104858001B680A439A613AE07B68082B1BD1FB6806
:104868001868BB681968BB685A68BB68DB6800F0E1
:1048780083FAFB681B68DA69FB681B6822F00C0284
:10488800DA61FB681B68D969BB689A68FB681B68B2
:104898000A43DA611BE0FB681868BB681968BB68E3
:1048A8005A68BB68DB6800F0A3FAFB681B68DA6922
:1048B800FB681B6822F44062DA61FB681B68D969EF
:1048C800BB689B681A02FB681B680A43DA61FB68CD
:1048D800012283F83D20FB68002283F83C20002356
:1048E80018461037BD4680BD80B584B000AF7860EB
:1048F80039607B6893F83C30012B01D10223B3E087
:104908007B68012283F83C207B68022283F83D20E3
:104918007B681B689B68FB60FB6823F07703FB6080
:10492800FB6823F47F43FB607B681B68FA689A6026
:104938003B681B68B3F5005F3ED0B3F5005F00F23B
:104948008780B3F5805F00F08580B3F5805F7FD8FE
:10495800702B1AD0702B7BD8602B50D0602B77D857
:10496800502B3CD0502B73D8402B58D0402B6FD8AD
:10497800302B64D0302B6BD8202B60D0202B67D8FD
:10498800002B5CD0102B5AD062E07B6818683B681B
:1049980099683B685A683B68DB6800F081FA7B6875
:1049A8001B689B68FB60FB6843F07703FB607B68D0
:1049B8001B68FA689A604EE07B6818683B689968DB
:1049C8003B685A683B68DB6800F06AFA7B681B68DA
:1049D8009A687B681B6842F480429A603BE07B6877
:1049E80018683B6859683B68DB681A4600F028F984
:1049F8007B681B685021184600F037FA2BE07B686B
:104A080018683B6859683B68DB681A4600F084F907
:104A18007B681B686021184600F027FA1BE07B685A
:104A280018683B6859683B68DB681A4600F008F963
:104A38007B681B684021184600F017FA0BE07B687A
:104A48001A683B681B681946104600F00EFA02E027
:104A580000BF00E000BF7B68012283F83D207B682F
:104A6800002283F83C20002318461037BD4680BD3D
:104A780080B485B000AF786039607B681B68FB60E4
:104A88007B68344A93420FD07B68B3F1804F0BD0D8
:104A98007B68314A934207D07B68304A934203D0FF
:104AA8007B682F4A934208D1FB6823F07003FB60B0
:104AB8003B685B68FA681343FB607B68254A93424E
:104AC8001BD07B68B3F1804F17D07B68224A934292
:104AD80013D07B68214A93420FD07B68204A9342C7
:104AE8000BD07B681F4A934207D07B681E4A9342CB
:104AF80003D07B681D4A934208D1FB6823F44073B6
:104B0800FB603B68DB68FA681343FB60FB6823F0D3
:104B180080023B685B691343FB607B68FA681A6034
:104B28003B689A687B68DA623B681A687B689A62B5
:104B38007B68084A934203D13B681A697B681A6309
:104B48007B6801225A6100BF1437BD465DF8047BBB
:104B5800704700BF0000014000040040000800400A
:104B6800000C004000400140004401400048014062
:104B780080B487B000AFF860B9607A603B60FB68CA
:104B88001B6A23F00102FB681A62FB689B697B6160
:104B9800FB681B6A3B61FB68244A934213D0FB689D
:104BA800B3F1804F0FD0FB68214A93420BD0FB68CA
:104BB800204A934207D0FB681F4A934203D0FB6800
:104BC8001E4A934201D1012300E00023002B08D0A4
:104BD8007B6923F003037B617A697B6813437B61FC
:104BE80003E07B6943F001037B617B6923F0F003F9
:104BF8007B613B681B01DBB27A6913437B613B69CC
:104C080023F00A033B61BB6803F00A033A691343C4
:104C18003B61FB687A699A61FB683A691A6200BF6E
:104C28001C37BD465DF8047B704700BF000001409B
:104C38000004004000080040000C00400040014013
:104C480080B487B000AFF860B9607A60FB681B6A0F
:104C58007B61FB681B6A23F00102FB681A62FB6830
:104C68009B693B613B6923F0F0033B617B681B0157
:104C78003A6913433B617B6923F00A037B617A69D4
:104C8800BB6813437B61FB683A699A61FB687A6980
:104C98001A6200BF1C37BD465DF8047B704780B4BC
:104CA80087B000AFF860B9607A603B60FB681B6A48
:104CB80023F01002FB681A62FB689B697B61FB6842
:104CC8001B6A3B617B6923F440737B617B681B0231
:104CD8007A6913437B617B6923F470437B613B688A
:104CE8001B039BB27A6913437B613B6923F0A003E2
:104CF8003B61BB681B0103F0A0033A6913433B61A6
:104D0800FB687A699A61FB683A691A6200BF1C37C6
:104D1800BD465DF8047B704780B487B000AFF8608B
:104D2800B9607A60FB681B6A23F01002FB681A629C
:104D3800FB689B697B61FB681B6A3B617B6923F4A9
:104D480070437B617B681B037A6913437B613B6912
:104D580023F0A0033B61BB681B013A6913433B6125
:104D6800FB687A699A61FB683A691A6200BF1C3766
:104D7800BD465DF8047B704780B487B000AFF8602B
:104D8800B9607A603B60FB681B6A23F48072FB6839
:104D98001A62FB68DB697B61FB681B6A3B617B69A4
:104DA80023F003037B617A697B6813437B617B692A
:104DB80023F0F0037B613B681B01DBB27A69134384
:104DC8007B613B6923F420633B61BB681B0203F4EE
:104DD80020633A6913433B61FB687A69DA61FB68CF
:104DE8003A691A6200BF1C37BD465DF8047B7047FC
:104DF80080B487B000AFF860B9607A603B60FB6848
:104E08001B6A23F48052FB681A62FB68DB697B61CA
:104E1800FB681B6A3B617B6923F440737B617B6899
:104E28001B027A6913437B617B6923F470437B61BE
:104E38003B681B039BB27A6913437B613B6923F48C
:104E480020433B61BB681B0303F420433A691343C7
:104E58003B61FB687A69DA61FB683A691A6200BFEC
:104E68001C37BD465DF8047B704780B485B000AF41
:104E7800786039607B689B68FB60FB6823F070038F
:104E8800FB603A68FB68134343F00703FB607B68E9
:104E9800FA689A6000BF1437BD465DF8047B704716
:104EA80080B487B000AFF860B9607A603B60FB6897
:104EB8009B687B617B6923F47F437B613B681A02B3
:104EC8007B681A43BB6813437A6913437B61FB68A9
:104ED8007A699A6000BF1C37BD465DF8047B70474D
:104EE80080B485B000AF786039607B6893F83C3057
:104EF800012B01D1022350E07B68012283F83C207A
:104F08007B68022283F83D207B681B685B68FB6036
:104F18007B681B689B68BB60FB6823F07003FB60C1
:104F28003B681B68FA681343FB607B681B68FA6878
:104F38005A607B681B681C4A934218D07B681B68C0
:104F4800B3F1804F13D07B681B68184A93420ED088
:104F58007B681B68164A934209D07B681B68154A10
:104F6800934204D07B681B68134A93420CD1BB68F8
:104F780023F08003BB603B685B68BA681343BB607F
:104F88007B681B68BA689A607B68012283F83D20B9
:104F98007B68002283F83C20002318461437BD465E
:104FA8005DF8047B704700BF00000140000400402A
:104FB80000080040000C00400040014084B080B56B
:104FC80084B000AF786007F11C0080E80E003B6BEE
:104FD800012B22D17B689B6B23F480327B689A6318
:104FE8007B68DB6823F4840323F040037A68D3608A
:104FF8007B68DB6823F440127B68DA60FB6C012B6A
:1050080005D17B68DB6843F480127B68DA607868D6
:1050180001F0C6FA0346FB731AE07B68DB6843F0CD
:1050280040027B68DA60786801F0BAFA0346FB73DD
:105038003B6C002B06D17B689B6B43F480327B680A
:105048009A6305E07B689B6B23F480327B689A63E4
:10505800BB6A012B0BD17B689B6843F006027B6817
:105068009A607B689B6843F020027B689A60FB7BB0
:1050780018461037BD46BDE8804004B070470000B0
:1050880080B487B000AFF860B9601346FB71FB7954
:10509800022B65D1BB68414A934206D9BB68404A96
:1050A800934202D20F237B6162E0BB683C4A934281
:1050B80006D3BB683B4A934202D20E237B6157E07A
:1050C800BB68384A934206D3BB68374A934202D238
:1050D8000D237B614CE0BB68334A934206D3BB681F
:1050E800324A934202D80C237B6141E0BB682F4AC5
:1050F800934206D9BB682E4A934202D80B237B61A0
:1051080036E0BB682A4A934206D9BB68294A9342CB
:1051180002D80A237B612BE0BB68264A934206D952
:10512800BB68254A934202D209237B6120E0BB6811
:10513800214A934206D3BB68204A934202D80823E7
:105148007B6115E0BB681D4A934206D9BB681C4ABF
:10515800934202D207237B610AE006237B6107E0C2
:10516800FB79002B02D109237B6101E009237B61D4
:10517800FB68DB6823F47052FB68DA60FB68DA6866
:105188007B699B0203F470531A43FB68DA600023BF
:1051980018461C37BD465DF8047B7047BFACD80085
:1051A800C0E1E4000024F400807306019F491A015D
:1051B800FF2C31013FA44C0100366E011FABA60144
:1051C8000048E80180B483B000AF78607B689B68D2
:1051D80043F001027B689A60002318460C37BD46ED
:1051E8005DF8047B704780B483B000AF78607B685B
:1051F8009B6823F001027B689A60002318460C37ED
:10520800BD465DF8047B704780B582B000AF78601A
:105218000B46FB707B68DB6823F0C0427B68DA6072
:10522800FB78012B06D17B68DB6843F000527B6872
:10523800DA600BE0FB78002B06D17B68DB6843F073
:1052480080427B68DA6001E0012303E03220FCF74A
:105258001BFB002318460837BD4680BD84B080B5C7
:1052680086B000AF786007F1240080E80E000023C4
:10527800FB757B68FB6000233B6109E07A683B694A
:1052880040339B00134400225A603B6901333B6161
:105298003B690E2BF2D9FB6C002B1CD1FB6803F584
:1052A80000635B68FA6802F5006243F0020353602A
:1052B8007B689B6B43F400127B689A637B689B6BEB
:1052C80023F400227B689A637B689B6B23F480221B
:1052D8007B689A630BE07B689B6B23F400127B6806
:1052E8009A637B689B6B43F400227B689A63FB6834
:1052F80003F560631A4600231360FB6803F5006337
:105308001946FB6803F500631A460B681360BB6B0C
:10531800012B0CD1FB6A002B04D10021786800F026
:1053280049F908E00121786800F044F903E0032115
:10533800786800F03FF91021786800F0F3F8034628
:10534800002B01D00123FB75786800F011F90346A2
:10535800002B01D00123FB75FB6803F500631A4697
:1053680000231361FB6803F500631A4600235361A9
:10537800FB6803F500631A460023D36100233B61F1
:1053880043E03B695A01FB68134403F510631B684B
:1053980003F00043B3F1004F18D13B69002B0AD149
:1053A8003B695A01FB68134403F510631A464FF032
:1053B8000063136013E03B695A01FB68134403F56B
:1053C80010631A464FF09043136008E03B695A0196
:1053D800FB68134403F510631A46002313603B6906
:1053E8005A01FB68134403F510631A46002313613E
:1053F8003B695A01FB68134403F510631A464FF6DC
:105408007F3393603B6901333B617B6A3A699A4217
:10541800B7D300233B6143E03B695A01FB6813445F
:1054280003F530631B6803F00043B3F1004F18D154
:105438003B69002B0AD13B695A01FB68134403F509
:1054480030631A464FF00063136013E03B695A015A
:10545800FB68134403F530631A464FF0904313601A
:1054680008E03B695A01FB68134403F530631A46A8
:10547800002313603B695A01FB68134403F530634A
:105488001A46002313613B695A01FB68134403F56C
:1054980030631A464FF67F3393603B6901333B61B3
:1054A8007B6A3A699A42B7D3FB6803F500631B69C4
:1054B800FA6802F5006223F4807313617B680022A6
:1054C8009A617B686FF080425A613B6B002B05D173
:1054D8007B689B6943F010027B689A617B689A69D4
:1054E8000F4B13437A689361FB6B002B05D07B68E5
:1054F8009B6943F008027B689A61FB6C012B07D11A
:105508007B689B6943F0804343F004037A689361A6
:10551800FB7D18461837BD46BDE8804004B070478B
:1055280000383C8080B485B000AF786039600023D3
:10553800FB603B689B0143F020027B681A61FB68B3
:105548000133FB60FB68094A934201D9032306E053
:105558007B681B6903F02003202BF0D0002318463A
:105568001437BD465DF8047B704700BF400D03004B
:1055780080B485B000AF78600023FB607B681022A0
:105588001A61FB680133FB60FB68094A934201D941
:10559800032306E07B681B6903F01003102BF0D08F
:1055A800002318461437BD465DF8047B704700BFDA
:1055B800400D030080B485B000AF78600B46FB70E7
:1055C8007B68FB60FB6803F500631A68FB78F96881
:1055D80001F5006113430B60002318461437BD46DC
:1055E8005DF8047B704780B487B000AF78607B6853
:1055F8003B613B6903F500639B6803F00603FB60AE
:10560800FB68002B02D10023FB750AE0FB68022B24
:1056180002D0FB68062B02D10223FB7501E00F23A1
:10562800FB75FB7D18461C37BD465DF8047B70474B
:1056380080B485B000AF786039607B68FB603B68F8
:105648001B78BB603B685B78012B3AD1FB6803F59C
:105658000063DA693B681B7803F00F03012101FA44
:1056680003F39BB2F96801F500611343CB61BB6892
:105678005A01FB68134403F510631B6803F40043E5
:10568800002B55D1BB685A01FB68134403F510631E
:105698001A683B689B68C3F30A013B68DB789B0484
:1056A8001943BB689B050B431343BA685101FA6859
:1056B8000A4402F5106243F0805343F40043136038
:1056C80036E0FB6803F50063DA693B681B7803F092
:1056D8000F03012101FA03F31B04F96801F50061C6
:1056E8001343CB61BB685A01FB68134403F530636D
:1056F8001B6803F40043002B1AD1BB685A01FB68EE
:10570800134403F530631A683B689B68C3F30A01C6
:105718003B68DB789B040B431343BA685101FA6872
:105728000A4402F5306243F0805343F400431360A7
:10573800002318461437BD465DF8047B7047000007
:1057480080B485B000AF786039607B68FB603B68E7
:105758001B78BB603B685B78012B61D1BB685A0141
:10576800FB68134403F510631B6803F00043B3F1AF
:10577800004F1FD1BB685A01FB68134403F510633F
:105788001B68BA685101FA680A4402F5106243F0CE
:1057980000631360BB685A01FB68134403F5106388
:1057A8001B68BA685101FA680A4402F5106243F0AE
:1057B80080431360FB6803F50063DA6B3B681B7872
:1057C80003F00F03012101FA03F39BB2DB43F968ED
:1057D80001F500611340CB63FB6803F50063DA69E8
:1057E8003B681B7803F00F03012101FA03F39BB216
:1057F800DB43F96801F500611340CB61BB685A01CE
:10580800FB68134403F510631A68BB685901FB6809
:105818000B4403F510631946354B13400B6060E0E9
:10582800BB685A01FB68134403F530631B6803F037
:105838000043B3F1004F1FD1BB685A01FB68134402
:1058480003F530631B68BA685101FA680A4402F527
:10585800306243F000631360BB685A01FB6813446D
:1058680003F530631B68BA685101FA680A4402F507
:10587800306243F080431360FB6803F50063DA6B22
:105888003B681B7803F00F03012101FA03F31B04A3
:10589800DB43F96801F500611340CB63FB6803F54E
:1058A8000063DA693B681B7803F00F03012101FAF2
:1058B80003F31B04DB43F96801F500611340CB6176
:1058C800BB685A01FB68134403F530631A68BB6868
:1058D8005901FB680B4403F530631946054B134027
:1058E8000B60002318461437BD465DF8047B7047EB
:1058F800007833EC0078F3EF80B58AB002AFF86037
:10590800B9601346FB71FB68FB61BB681B78BB6120
:10591800BB685B78012B40F05C81BB685B69002B3E
:1059280032D1BB695A01FB69134403F510631B6943
:10593800BA695101FA690A4402F5106223F0FF536B
:1059480023F4C0131361BB695A01FB69134403F5BF
:1059580010631B69BA695101FA690A4402F51062B9
:1059680043F400231361BB695A01FB69134403F52F
:1059780010631B69BA695101FA690A4402F5106299
:10598800DB0CDB04136174E0BB695A01FB69134447
:1059980003F510631B69BA695101FA690A4402F5F3
:1059A8001062DB0CDB041361BB695A01FB69134409
:1059B80003F510631B69BA695101FA690A4402F5D3
:1059C800106223F0FF5323F4C0131361BB695A011B
:1059D800FB69134403F510631A69BB685969BB680E
:1059E8009B680B44591EBB689B68B1FBF3F3D90451
:1059F8009D4B0B40B9694801F969014401F51061F3
:105A080013430B61BB695A01FB69134403F5106327
:105A18001A69BB685B69C3F31203B9694801F9697C
:105A2800014401F5106113430B61BB68DB78012B5E
:105A38001FD1BB695A01FB69134403F510631B6945
:105A4800BA695101FA690A4402F5106223F0C043A9
:105A58001361BB695A01FB69134403F510631B69A1
:105A6800BA695101FA690A4402F5106243F0005319
:105A78001361FB79012B4BD1BB681B69002B09D043
:105A8800BB695A01FB69134403F510631A46BB68E6
:105A98001B695361BB68DB78012B28D1FB6903F5CF
:105AA80000639B6803F48073002B10D1BB695A0113
:105AB800FB69134403F510631B68BA695101FA695D
:105AC8000A4402F5106243F0005313600FE0BB690B
